:03000300010800F1
:1000B20075812F758920758BFD758DFDD28E759892
:1000C20050438780D2ACD2AFE4FFEFC3940A74806E
:1000D2009480500DEF2430FE74722FF8A6060F8024
:0D00E200E974722508F8E6F599050880FE1E
:030023000200EFE9
:1000EF00C0E0C0D075D000C000309919C299C3E5E7
:1000FF0008940A74809480501174722508F8E6F5FC
:10010F009905088005C298859990D000D0D0D0E08D
:01011F0032AD
:03000000020026D5
:0C002600787FE4F6D8FD75817B02006D48
:100032000200B2E493A3F8E493A34003F68001F232
:1000420008DFF48029E493A3F85407240CC8C333CF
:10005200C4540F4420C8834004F456800146F6DF9E
:10006200E4800B0102040810204080900003E47E2B
:10007200019360BCA3FF543F30E509541FFEE49393
:10008200A360010ECF54C025E060A840B8E493A35A
:10009200FAE493A3F8E493A3C8C582C8CAC583CA85
:1000A200F0A3C8C582C8CAC583CADFE9DEE780BE3D
:0100060000F9
:00000001FF
